:1000000002308A00472A0000831A0A28A400030E3F
:10001000A5000F288312A400030EA500A5140A084A
:10002000AB008A018313A40E0408A6002008A700D1
:100030002108A8002208A9002308AA0083128B1E09
:1000400023280B197B28260884002708A0002808ED
:10005000A1002908A2002A08A3002B088A00250E67
:1000600083008312240EA518831609000A108A1033
:100070000A118207523461346E3464346F346D3443
:10008000203473346534653464343A342034253490
:100090004C3478340D340A3400340A108A100A11B2
:1000A00082075434653472346D346F342D344734E0
:1000B000653469346734653472342E342034453401
:1000C0006C3465346334743472346F346E34693430
:1000D00063346134203479342034633469346534D2
:1000E0006E346334693461342E3420343234303425
:1000F0003134393400348316051183120511831607
:100100000510831205108B120B118A1123288316F8
:100110008512831285120830A1008E280000A117D5
:100120009F28A113E70C03188516031C85122117BD
:100130009F282113A10B92289D28000085163F308F
:100140008400840BA1280000A11B9128211B992861
:100150000800E61BBB280F30A000650EA0050A3082
:1001600020020318B6283030A007B8286608A00778
:100170002008E70087200F30E5050A3065020318E4
:10018000C3283030C528E6136608E5076508E70090
:10019000872008001F1383161F149F101F119F151F
:1001A00004308312A1001F08F33921049F00831635
:1001B0001F169F121F1783129F131F140D30A000CC
:1001C000A00BE028DC01DB01DA01D9012030E300DB
:1001D0006308E303003A0319FC289F149F18EE28D4
:1001E0001E08E4000130E4050310D90DDA0DDB0D23
:1001F000DC0D6408D904E828D908031D0D29DA08A4
:10020000031D0D29DB08031D0D29DC08031D0D2925
:10021000DC01DB01DA010130D900E5016508362097
:10022000E50AA000E70087200D306502031D0E29B6
:100230005C08E5005730E600A9205B08E500573070
:10024000E600A9205A08E5005730E600A920590821
:10025000E5005730E600A9200D30E70087200A307E
:10026000E7008720CC2AA001590DA1005A0DA20059
:100270005B0DA300A10DA20DA30DA10DA20DA30D59
:10028000A10DA20DA30DA10DA20DA30DE030A1059E
:100290002008D9062108DA062208DB062308DC0636
:1002A0000310A301A2015C0CA1005B0CA000D90605
:1002B0002108DA062208DB062308DC06590DA00017
:1002C0005A0DA1005B0DA2005C0DA300A00DA10DB5
:1002D000A20DA30DA00DA10DA20DA30DA00DA10DAA
:1002E000A20DA30DA00DA10DA20DA30DE030A00540
:1002F0002008D9062108DA062208DB062308DC06D6
:100300005B08A0005C08A100A201A3015C08A20098
:100310005B08A100DF2AE701E601E501E401EB014A
:10032000EA01E901E801EC01E308031D9B29003023
:10033000A100A200462A630FA129FF30A100A2005C
:10034000462A2C306C078400630800020318AA298F
:10035000EC0AA1296C0DA000A00DFC30A00520081E
:10036000313E84000008E800840A0008E900840A9D
:100370000008EA00840A0008EB006C0DA000A00D44
:10038000FC30A0052008453E84000008E400840AF3
:100390000008E500840A0008E600840A0008E70077
:1003A0006B08F0006A08EF006908EE006808ED00CD
:1003B000F401F301F2016308F1002030F900F501C6
:1003C000F601F701F8017008A3006F08A2006E089B
:1003D000A1006D08A0000310201CFC297108F5077E
:1003E00072080318720FF60773080318730FF707E4
:1003F00074080318740FF807F80CF70CF60CF50CDA
:10040000A30CA20CA10CA00CF90BEB292308EB0008
:100410002208EA002108E9002008E8000310EB0C9C
:10042000EA0CE90CE80C6408E8026508031C650F97
:10043000E9026608031C660FEA026708031C670FDF
:10044000EB026908E8006A08E9006B08EA00EB01C2
:10045000EB0CEA0CE90CE80CEB0CEA0CE90CE80CF0
:10046000EB0CEA0CE90CE80C1F30EB05EB08031D64
:100470003D2A6A08003C0318422AEB01EA01FF30DA
:10048000E900E8006808A1006908A200EA2A030858
:100490001F398300713083168F0090010F08851279
:1004A00083128516DD011F1383161F109F101F1165
:1004B0009F110730831299004030AC009030AD009E
:1004C000BC30AE00DD30AF00F530B0006E30B100B2
:1004D0000130B200B301B401CD30B5000430B60034
:1004E000B701B801BA30B9006030BA00BB01BC0135
:1004F000CA30BD000630BE000530BF00C001C101DA
:10050000FC30C200A230C300C401B730C5000530C2
:10051000C600C701C8019A30C9007130CA00CB01BA
:10052000CC015D30CD004C30CE001A30CF00D00170
:100530001030D1004630D200CF30D3000130D4008B
:10054000D5019E30D600FD30D7004530D8001F13AE
:1005500083161F149F141F119F1583121F138316D8
:100560001F149F101F119F150108C0390138810009
:10057000C03083128B04E30163084D200038031957
:10058000C52AE30AE7008720BC2A0D30E700872050
:100590000A30E7008720CA280C30A1001F08F33971
:1005A00021049F0083161F169F121F1783129F138B
:1005B0001F140D30A000A00BDB2A9F143329220842
:1005C000DF002108DE009F18E32A1E08E20062080F
:1005D000E3008B292208E1002108E0005F086102A6
:1005E000031C032B031DF82A60085E020318032B6B
:1005F0008316051183120515831605108312051441
:0A06000081010B118B16DD2A630047
:02400E00C40FDD
:00000001FF
;PIC12F683
;CRC=D705  CREATED="22-jun.-19 16:09"
