:100000000E308A00AD2E0000FF00030E8301A10018
:100010007F08A0000A08AB008A01A00E0408A20015
:100020007708A3007808A4007908A5007A08A6003C
:1000300003170D080313A70003170F080313A800E5
:1000400003170C080313A90003170E080313AA00D3
:10005000831383128C308400001C30280C18552820
:100060008B1E34280B195728220884002308F70018
:100070002408F8002508F9002608FA0027080317C5
:100080008D000313280803178F0003132908031793
:100090008C0003132A0803178E0003132B088A0011
:1000A000210E8300FF0E7F0E09008A11CF288A11CE
:1000B000CB285434653472346D346F342D34473466
:1000C0006534693467346534723420342034203424
:1000D00032343034313439340A340A344D346934EA
:1000E0006434693465346E3464346F342E342E34A1
:1000F0002E3400344534783470343A34203420348B
:100100002034253437344C3475342034433450345F
:100110004D3420342034003444346F347334693423
:1001200073343A3420342034253436342E34323487
:100130006734203425346334533476342F346834B0
:10014000003420342034203420342034203420342F
:100150002034253436342E34323467342034253478
:100160006334533476342F3461340034413463348F
:1001700063343A3420342034203420342534363467
:100180002E34323467342034253463345334763497
:10019000203420340034AC0A0B118A113428AD0A03
:1001A0002D08033C0318DE280108313C031CDC2821
:1001B0002D08123C0318DE280130AE000C108A1105
:1001C00034280830F80000000612831606120000DA
:1001D000CE0D83128610031CF0288316861483121A
:1001E0000318F528831686108312831606168312C9
:1001F000061EF828F80BE3280000061283160612E4
:10020000000086140000000006168312061E062950
:10021000F80100008618781406128316061283125D
:1002200086108316861083120800533084008313CF
:100230000008031928290230F800F701F70B1E29DE
:10024000F80B1D299730F700F70B2429800B1B2989
:10025000080083168614000006160000831286101C
:1002600083168610000083120612831606120830C9
:100270004A07840083134B1883170310000DCD0029
:10028000CE008312E120F808031D672983164C086D
:100290000438CD00CE008312E120F808031D672941
:1002A00083164C08CE008312E120F808031D67294D
:1002B00083168610000006168312061E5D290000B4
:1002C000612900008316861400007C29831283169E
:1002D0008610000006168312061E6C290000702985
:1002E000000083168614000006304A07840083133A
:1002F0004B18831701308000831208008316460EC6
:10030000F7000F30F70577080F39C70046080F3997
:10031000C80004304307840083134418831700087F
:10032000C504470EF700F030F70577084504C9000B
:100330004408CB004308CA004908CC008312292195
:100340008316480EF700F030F70577084504C9001A
:100350004408CB004308CA004908CC008312292175
:10036000080052088316C400831251088316C30084
:10037000C5010130C60083127E210230D300152151
:1003800008004D08CF0083168614000006160000F2
:1003900083128610831686100000831206128316BD
:1003A0000612031083124F0DD1008316CE00831264
:1003B000E1207808D000D0080319E1290030F800C6
:1003C000F12983168610000006168312061EE62900
:1003D0000000EA2900008316861400000130F800AE
:1003E0008312F808031DF7290030F800132B08309A
:1003F0004B07840083134C1883174D088000073087
:100400004B07840083134C1883174E088000063076
:100410004B07840083134C18831780014B0884001A
:1004200083134C18831780014E08013C0318202ABF
:100430004B08840083134C18831700080838800089
:1004400001304B07840083134C188317800102305E
:100450004B07840083134C1883170430800003304B
:100460004B07840083134C188317800104304B071B
:10047000840083134C1883170830800005304B0725
:10048000840083134C188317013080000A30D30096
:1004900015214C08D0004B08CF002D30D30015217A
:1004A00050088316CB0083124F088316CA003030E1
:1004B000CC00831229210530D30015215008831662
:1004C000CB0083124F088316CA003030CC00831251
:1004D00029210130D300152150088316CB00831247
:1004E0004F088316CA003030CC00831229214F08F0
:1004F0008400831350188317001A892A5008831622
:10050000CB0083124F088316CA002030CC00831220
:1005100029214C08D0004B08CF005008D2004F08CA
:10052000D1005208D4005108D3005308840083132B
:100530005418831700082038D50054088316C400C7
:10054000831253088316C300C5018312550883160E
:10055000C60083127E215208D4005108D300013016
:100560005307840083135418831700081038D500EC
:1005700054088316C400831253088316C300C501B0
:10058000831255088316C60083127E215208D400B8
:100590005108D30002305307840083135418831783
:1005A00000080838D50054088316C4008312530885
:1005B0008316C300C501831255088316C600831233
:1005C0007E215208D4005108D30003305307840021
:1005D00083135418831700080438D5005408831671
:1005E000C400831253088316C300C5018312550843
:1005F0008316C60083127E215008D2004F08D10016
:10060000B1215008D2004F08D10052088316C4000F
:10061000831251088316C300C5010230C60083123D
:100620007E210130F8008A15D32E2F088400831311
:1006300030188317831643088000840A80018312D0
:10064000AF0A0319B00A0800831641088038C200B7
:100650004008C4003F08C300C5014208C600831219
:100660007E2108008316BA014030BB001430BC0064
:100670005430BD00BA3038078400831339080007AE
:10068000BE003708C0003608BF003E08C100831214
:100690002423080083164708F238CA0004304507AF
:1006A000840083134618831700084A04C90086147F
:1006B00000000616000083128610831686100000C4
:1006C000831206128316061208304507840083132E
:1006D000461883170310000DCA00CE008312E120D4
:1006E00083164908CE008312E12083164908043896
:1006F000CA00CE008312E120831686100000061681
:100700008312061E812B0000852B000083168614A1
:10071000000086140000061600008312861083165F
:100720008610000083120612831606120830450751
:1007300084008313461883170310000D0138CA0084
:10074000CE008312E1200130F70008308316CB0081
:100750007708CC008614000006168312061EAE2B06
:1007600086180314861C0310F80D00008316061269
:10077000831206128316CB0BAA2B86140000831259
:10078000861083164C08031D86100000061683127F
:10079000061EC82B000006128316061200008312E4
:1007A0008610831686107808C8000130CE008312A8
:1007B000E12083168610000006168312061EDE2B2B
:1007C0000000E22B0000831686140000861400004F
:1007D000061600008312861083168610000083120E
:1007E0000612831606120830450784008313461844
:1007F00083170310000DCA00CE008312E120831678
:100800004908FB39CA00CE008312E120831649084B
:10081000FD39CA00CE008312E12083168610000045
:1008200006168312061E122C0000162C00008316DA
:1008300086140000480EF7000F30F7057708F8001F
:10084000831208008316BA013A083807840083131C
:100850003918831780080319E42C3A0838078400F4
:1008600083133918831700080A3C031DCF2C37085F
:10087000BC003608BB003C08BF003B08BE003F0878
:10088000C1003E08C000C2014108C6004008C500C2
:100890004208C70083124A2378088316C300410820
:1008A000C6004008C5004208C70083124A237808E2
:1008B0008316C400430EF700F030F70577084407AD
:1008C000F80078087808BD00BD1F6F2C06303B0784
:1008D000840083133C18831701308000CE2C07302E
:1008E0003B07840083133C1883170008013A8312E6
:1008F0000319812C033A03198A2C063A03199A2CFE
:10090000CD2C83163C08C0003B08BF00C1018312F8
:100910002423CD2C83163D083F3C031C982C3C0817
:10092000C0003B08BF004030C1008312242383165F
:100930008312CD2C83163D08133C031CA92C3C08C4
:10094000C0003B08BF004030C10083122423CB2CE1
:1009500083163D083F3C0318BB2C3D08533C031C49
:10096000BB2C3C08C0003B08BF001430C100831200
:100970002423CB2C83163D08133C0318CC2C3D08B4
:100980003F3C031CCC2C3C08C0003B08BF0054304B
:10099000C10083122423831683128316E22C3A08A3
:1009A000380784008313391883170008BB00370801
:1009B000C4003608C3000130C5003B08C6008312DE
:1009C0007E218316BA0A242C83120800B0014D3010
:1009D000AF00593003178D0000308F0003130B0850
:1009E000F1008B13831603178C170C140000000002
:1009F000F11FFF2C831203138B1783160317831227
:100A00008C080319162D0D08F1000F08F2000C08D0
:100A100083160313C30083121523710803178D0077
:100A200072088F008D0A03198F0AEE2C03134C08ED
:100A30008316B70083124B088316B600B801B901BC
:100A4000831232234C088316B70083124B08831697
:100A5000B600B9014D30B800831222248A15EE2E5B
:100A6000B630F700FA01F901F80183163A083B04A1
:100A70003C043D04031D3E2DF7014B2D0310F81BD4
:100A80004A2DBA0DBB0DBC0DBD0DFA0DF90DF80DBB
:100A9000F70B3E2DF8138312080083164308031941
:100AA000BE2DCB0047080319BE2DCB0703185F2DC1
:100AB0007F30CB02031CBE2D0319BE2D632D813068
:100AC000CB070318BE2D4B08F700F801F901FA0116
:100AD0004408CF00CF174508CE004608CD00183097
:100AE000CB00CC014D1C8C2D4A08FA07031C7E2D2F
:100AF000F90A031D7E2DF80A0319CC174908F907D6
:100B0000031C852DF80A0319CC174808C500C51722
:100B10004508F8070318CC17CC0DF80CF90CFA0CA3
:100B2000CF0CCE0CCD0C0310CB0B712D0130F70781
:100B30000318BE2DF81BA32DCF0DFA0DF90DF80DDE
:100B4000F7030319BE2DCF1FB42DFA0A031DB42DD0
:100B5000F90A031DB42DF80A031DB42DF80CF90C85
:100B6000FA0CF70A0319BE2D4408CC004808CC063D
:100B7000CC1FBC2DF817C22DF813C22DF701F801B8
:100B8000F901FA018312080083163A0803198A2E24
:100B9000C6003E0803198A2EC602031CD42D7F30DE
:100BA000C60703188A2EDA2D8130C602031C8A2E4E
:100BB00003198A2E4608F700F801F901FA01C50168
:100BC0003B08C400C4173C08C3003D08C2001930EC
:100BD000C6004108C2020318FD2D0130C3020318EC
:100BE000FD2DC4020318FD2DC5020318FD2DC50AF5
:100BF000C40AC30A4108C2072F2E4008C3020318C3
:100C0000182E0130C4020318182EC5020318182E1E
:100C1000C50AC40A4008C3074108C207031C2F2E97
:100C2000C30A031D2F2EC40A031D2F2EC50A2F2E03
:100C30003F088038C40203182E2E0130C502031865
:100C40002E2EC50A3F088038C4074008C307031C7E
:100C50000C2EC40A031D0C2EC50A0C2E7A14C60BCA
:100C6000322E3D2E0310C20DC30DC40DC50D031051
:100C7000FA0DF90DF80DC70DE92D471C452E03108F
:100C8000F80CF90CFA0CC70C482EF70303198A2E3E
:100C9000C71B712E0310C20DC30DC40DC50D410835
:100CA000C20203185D2E0130C30203185D2EC40278
:100CB00003185D2EC502031C802E4008C3020318D2
:100CC000682E0130C4020318682EC502031C802E52
:100CD0003F088038C4020318712E0130C502031C7E
:100CE000802EFA0A031D802EF90A031D802EF80AB1
:100CF000031D802EF70A03198A2EF80CF90CFA0C42
:100D00003B08C6003F08C606C61F882EF8178E2E61
:100D1000F8138E2EF701F801F901FA018312080089
:100D200083164308B63CC300FA014408C700C41741
:100D30000310C40CC50CC60CFA0CF90CF80CF70C1B
:100D4000C30B982EC71FAF2EF709F809F909FA0946
:100D5000F70A0319F80A0319F90A0319FA0A8312A0
:100D6000080020308316C600C201C301C401C501BA
:100D70003D08FA003C08F9003B08F8003A08F70083
:100D80000310771CD12E3E08C2073F0803183F0FFF
:100D9000C30740080318400FC40741080318410F58
:100DA000C507C50CC40CC30CC20CFA0CF90CF80C2A
:100DB000F70CC60BC02E831208008318E22ECB302E
:100DC00084008313F701F801F901FA018316CB01BE
:100DD000CC01CD01CE014A08490448044704031957
:100DE000212F2030CF000310C30DC40DC50DC60D3B
:100DF000CB0DCC0DCD0DCE0D4A084E02031D0A2F92
:100E000049084D02031D0A2F48084C02031D0A2FF2
:100E100047084B02031C1B2F4708CB024808031C42
:100E2000480FCC024908031C490FCD024A08031C95
:100E30004A0FCE020314F70DF80DF90DFA0DCF0B82
:100E4000F32E4B088000840A4C088000840A4D0869
:100E50008000840A4E088000831208008316370839
:100E6000BE003B08BE06BE1F3A2F03110310B71B7E
:100E700003146D2F3708BE003A08BF003608BF02C2
:100E80000319482FBE1F6D2F0308013A83006D2FF1
:100E90003B08BF003708BF020319542FBE1F6D2F38
:100EA0000308013A83006D2F3C08BF003808BF02D9
:100EB0000319602FBE1F6D2F0308013A83006D2FA9
:100EC0003D08BF003908BF0203196C2FBE1F6D2FEC
:100ED0000308013A83006D2F0310831208000B08EA
:100EE0008316B70083128B13831603178C170C1409
:100EF000000000000313B71F802F83128B17831687
:100F0000831203170D0883160313B7008312031708
:100F10000F0883160313B800831203170C088316F7
:100F20000313C30083121523831637088312031794
:100F30008D00831603133808831203178F008D0A60
:100F400003198F0A83160313B60BA72FA92F831239
:060F50006F2F8312080060
:1010000004088316BB003A08BD00031924283908D8
:10101000C6003808C5003708C4003608C300CA0136
:10102000C9012030C8008230C7008A1183124D25C3
:101030008A157A088316B9007908B8007808B700CD
:101040007708B600BD0B07287E30F700F801B71B04
:10105000F817F901FA0183103908C6003808C500ED
:101060003708C4003608C3007A08CA007908C900E6
:101070007808C8007708C70080308318C806CD01FB
:10108000CE014408CC004808CC06430803192C299B
:10109000CB00F700470803193529CB020319D128E3
:1010A000031C8F284808D100D1174908D0004A08EE
:1010B000CF00CE010310D10CD00CCF0CCE0CCB0B3B
:1010C0005928CC1F66284D1449294D104B104D1638
:1010D000C630840083135E294D12CC1B79284B1C2B
:1010E0008428D10CD00CCF0CCE0CF70A031944295C
:1010F0008428D11B87280310CE0DCF0DD00DD10D24
:10110000F7030319442979284D17F1284D13440892
:10111000CC00CC1F8D28D1173D29D1133D2947087C
:10112000CB00F7004308CB024408D100D117450893
:10113000D0004608CF00CE010310D10CD00CCF0C4C
:10114000CE0CCB0B9B28CC1FA828CD144929CD1041
:101150004B10CD16CA30840083135E29CD12CC1BF0
:10116000BB284B1CC628D10CD00CCF0CCE0CF70AD8
:1011700003194429C628D11BC9280310CE0DCF0D51
:10118000D00DD10DF70303194429BB28CD17F12841
:10119000CD134808CC00CC1FCF28D1173D29D1133F
:1011A0003D294808D100D1174908D0004A08CF008E
:1011B000CC1FDE28D1134D1549294D11CE014B10FE
:1011C000C630840083135E29CC1B07294408CC0059
:1011D0004B1CF128D10CD00CCF0CCE0CF70A031904
:1011E0004429CE1F0229CF0A031D0229D00A031D5C
:1011F0000229D10A031D0229D10CD00CCF0CF70A09
:10120000031944294D1B8628CD1BC8282629803068
:10121000D106D11F0F2949294808CC001C294408B0
:10122000CC00D108031D1C29D008031D1C29CF08A0
:10123000031D1C29F7013D29D11B26290310CE0DC2
:10124000CF0DD00DD10DF70B1C294429CC1F2A2915
:10125000D1173D29D1133D294708F7004808D1008F
:101260004908D0004A08CF003D294308F700440848
:10127000D1004508D0004608CF005108F8005008BA
:10128000F9004F08FA007C29F701F801F901FA0189
:101290007C29CE01CF09D009D109CE09CE0A031D80
:1012A0005729CF0A031D5729D00A0319D10A4D180F
:1012B0006528CD18A7284D19DD280C290008CF076F
:1012C000031C6829D00A031D6829D10A03194B148D
:1012D00084030008D007031C7029D10A03194B149A
:1012E00084030008801F803AD10703184B144D1A5D
:1012F0006C28CD1AAE28E4287A08B9007908B8001D
:101300007808B7007708B6003908C6003808C50065
:101310003708C4003608C3008A11831290268A1544
:101320007A088316B9007908B8007808B7007708FA
:10133000B600B91FA829BB03BB16B609B709B8097F
:10134000B909B60A0319B70A0319B80A0319B90A81
:101350003B30C2009A30C100CA30C000BF010A3021
:10136000BD003A080319BB0A8314B6308400831306
:101370003908C6003808C5003708C4003608C3005D
:101380004208CA004108C9004008C8003F08C70019
:101390008A118312DD268A157808F708031DE729CC
:1013A00083163A0A3D02031DD7298312E7293B0819
:1013B0000319EA290F393D020319E02903182A2AE3
:1013C000BB1B2A2A3B1BEA292030222A8312203009
:1013D0008316BB05BB1EFC29BB123A08031DBB03C9
:1013E0007708BB002D30C3008A11831215238A159C
:1013F00083163B08F700BB013A083D02031D0E2A85
:101400007708BB002E30C3008A11831215238A157A
:1014100083163B08F7002030BB0500303030BB1E80
:10142000222ABB123A08031DBB037708BB002D30EC
:10143000C3008A11831215238A1583163B08F7000F
:10144000BB013030F7077708C3008A1183121523D8
:101450008A15831683104208C6004108C50040085B
:10146000C4003F08C300CA01C901C8010A30C7004F
:101470008A118312DD268A157A088316C20079083C
:10148000C1007808C0007708BF00BD0BB4298312E3
:1014900008004D08B5074E0803184E0FB6074F0851
:1014A00003184F0FB70750080318500FB80750081C
:1014B0008316BD0083124F088316BC0083124E08AA
:1014C0008316BB0083124D088316BA008A1183125B
:1014D00030258A15C0308316C600E130C50064305F
:1014E000C4009830C3007A08CA007908C900780897
:1014F000C8007708C7008A1183124D258A157A081B
:10150000EB007908EA007808E9007708E800540859
:101510008316BD00831253088316BC008312520841
:101520008316BB00831251088316BA008A118312F6
:1015300030258A156B088316BD0083126A0883164E
:10154000BC00831269088316BB00831268088316E7
:10155000BA007A08C1007908C0007808BF0077088F
:10156000BE008A118312C4258A157A088316C60024
:101570007908C5007808C4007708C3008A1183126F
:1015800090268A157A08D8007908D7007808D600FE
:101590007708D5008316BD01BC01BB013C30BA0001
:1015A000831258088316C100831257088316C0009F
:1015B000831256088316BF00831255088316BE0097
:1015C0008A118312B1268A157A08EB007908EA009D
:1015D0007808E9007708E8008316BD01BC01BB016B
:1015E0002830BA00831234088316C10083123308EE
:1015F0008316C000831232088316BF00831231089D
:101600008316BE008A118312B1268A157708E8076F
:1016100078080318780FE90779080318790FEA07A3
:101620007A0803187A0FEB0783106B088316C6003D
:1016300083126A088316C500831269088316C400E2
:10164000831268088316C300CA01C901C801643047
:10165000C7008A118312DD268A157A08D800790816
:10166000D7007808D6007708D5005808B400570886
:10167000B3005608B2005508B100E430DD00580848
:101680008316BD00831257088316BC0083125608C8
:101690008316BB00831255088316BA008A11831281
:1016A00030258A157A08EB007908EA007808E90005
:1016B0007708E8007A088316BD008312790883163C
:1016C000BC00831278088316BB0083127708831648
:1016D000BA00C1018030C0001D30BF008730BE009D
:1016E0008A118312C4258A157A08DC007908DB0088
:1016F0007808DA007708D9008316B901B8017A3082
:10170000B7008830B60083125C088316BD008312D0
:101710005B088316BC0083125A088316BB00831231
:1017200059088316BA008A1183122E278A150318C6
:101730009B2B031DBE2B5C088316BD0083125B0828
:101740008316BC0083125A088316BB008312590803
:101750008316BA00C101C0017A30BF008830BE00D4
:101760008A118312C4258A157A08DC007908DB0007
:101770007808DA007708D9006D30DD006D30E200BE
:1017800058088316BD00831257088316BC008312C5
:1017900056088316BB00831255088316BA008A11B7
:1017A000831230258A15F6308316C6002830C5000E
:1017B0000C30C4008230C3007A08CA007908C9001E
:1017C0007808C8007708C7008A1183124D258A154A
:1017D0007A08EB007908EA007808E9007708E80061
:1017E0007A088316BD00831279088316BC00831221
:1017F00078088316BB00831277088316BA00C101EC
:101800008030C0001D30BF008730BE008A118312B7
:10181000C4258A157A08E1007908E0007808DF001D
:101820007708DE008316B901B8017A30B700883036
:10183000B600831261088316BD0083126008831608
:10184000BC0083125F088316BB0083125E088316F8
:10185000BA008A1183122E278A150318312C031D12
:10186000542C61088316BD00831260088316BC00E7
:1018700083125F088316BB0083125E088316BA00CA
:10188000C101C0017A30BF008830BE008A118312C6
:10189000C4258A157A08E1007908E0007808DF009D
:1018A0007708DE002030E200E430E70038088316D5
:1018B000BD00831237088316BC00831236088316D6
:1018C000BB00831235088316BA008A1183123025B3
:1018D0008A158316C601C501C4017F30C3007A088A
:1018E000CA007908C9007808C8007708C7008A11BB
:1018F00083124D258A157A08EB007908EA007808EA
:10190000E9007708E8007A088316BD008312790899
:101910008316BC00831278088316BB0083127708F5
:101920008316BA00C1018030C0001D30BF0087306F
:10193000BE008A118312C4258A157A08E600790848
:10194000E5007808E4007708E3008316B901B801E0
:101950007A30B7008830B600831266088316BD005F
:10196000831265088316BC00831264088316BB00CB
:10197000831263088316BA008A1183122E278A15F0
:101980000318C42C031DE72C66088316BD008312C0
:1019900065088316BC00831264088316BB0083129B
:1019A00063088316BA00C101C0017A30BF008830D5
:1019B000BE008A118312C4258A157A08E6007908C8
:1019C000E5007808E4007708E3006D30E7004C0894
:1019D0008316B70083124B088316B600B801B9010D
:1019E0008A11831232238A15B001A030AF007A30F9
:1019F00003178D0000308F00073083160313B600E5
:101A00008A1183126F278A150730840058088316BD
:101A1000B900831257088316B8008312560883163C
:101A2000B700831255088316B6000408BA003B308D
:101A3000C1009A30C000CA30BF00BE010A30BC00ED
:101A40008314B630840083133908C6003808C500F3
:101A50003708C4003608C3004108CA004008C9005E
:101A60003F08C8003E08C7008A118312DD268A1588
:101A70007808F708031D532D83163C08013A031D0F
:101A8000432D8312532D3A080319552D0F393C026B
:101A900003194C2D03185E2DBA1B5E2D3A1B552DD4
:101AA0002030562D83128316BA013030F70777089D
:101AB000C3008A11831215238A15831683104108E7
:101AC000C6004008C5003F08C4003E08C300CA0164
:101AD000C901C8010A30C7008A118312DD268A15A0
:101AE0007A088316C1007908C0007808BF0077081B
:101AF000BE00BC0B202D8530831203178D000030F3
:101B00008F00063083160313B6008A1183126F27E5
:101B10008A154C088316B70083124B088316B6004B
:101B2000B901A030B8008A11831222248A154C080A
:101B30008316B70083124B088316B6000130B80035
:101B4000B9018A11831232238A15B001A030AF0087
:101B50008C3003178D0000308F000830831603137C
:101B6000B6008A1183126F278A15053084005C083D
:101B70008316B90083125B088316B80083125A08D3
:101B80008316B700831259088316B6000230BA00D4
:101B90008312002020308316C3008A11831215237C
:101BA0008A155D088316C3008A11831215238A15CE
:101BB0009C3003178D0000308F0004308316031310
:101BC000B6008A1183126F278A154C088316B70056
:101BD00083124B088316B600B901A030B8008A11F1
:101BE000831222248A154C088316B70083124B08EF
:101BF0008316B6000230B800B9018A11831232236D
:101C00008A15B001A030AF00A13003178D0000305D
:101C10008F00083083160313B6008A1183126F27D2
:101C20008A150530840061088316B90083126008A4
:101C30008316B80083125F088316B70083125E080C
:101C40008316B6000230BA008312002020308316BB
:101C5000C3008A11831215238A1562088316C300F4
:101C60008A11831215238A15B13003178D000030B5
:101C70008F00043083160313B6008A1183126F2776
:101C80008A154C088316B70083124B088316B600DA
:101C9000B901A030B8008A11831222248A154C0899
:101CA0008316B70083124B088316B6000330B800C2
:101CB000B9018A11831232238A15B001A030AF0016
:101CC000B63003178D0000308F00083083160313E1
:101CD000B6008A1183126F278A15053084006608C2
:101CE0008316B900831265088316B800831264084E
:101CF0008316B700831263088316B6000230BA0059
:101D00008312002020308316C3008A11831215230A
:101D10008A1567088316C3008A11831215238A1552
:101D2000C63003178D0000308F0004308316031374
:101D3000B6008A1183126F278A154C088316B700E4
:101D400083124B088316B600B901A030B8008A117F
:101D5000831222248A158A15752F03081F398300E0
:101D6000723083168F0090010F088312B001AF010B
:101D7000B401B301B201B101B801B701B601B501B7
:101D800083161F129F121B0880399B0007309C008E
:101D900083138312CC013930CB002730CD000430BF
:101DA000CE008A11C1298A1583161F129F121B08A3
:101DB00080399B000108C73928388100B53083126B
:101DC00090008B1683160C14C03083128B040130E4
:101DD000C200CC013930CB008A11E62C8A15AE0145
:101DE000AC01AD018E018F018E0183160C1483129C
:101DF00081018B16831605168312AE080319FD2E7A
:101E000083160512831205120B110C10CE01CD01A1
:101E1000CC012D08CB004D08CE004C08CD00CB01E5
:101E20004D08CE002D08CD004B08CC00CB01CB0DCA
:101E3000CC0DCD0DCE0DCB0DCC0DCD0DCE0DFC3082
:101E4000CB0501304B07C3004C08C4000030031819
:101E50000130C4074D08C500003003180130C50724
:101E60004E08C600003003180130C607CE01CD0170
:101E7000CC012C08CB004D08CE004C08CD004B08FF
:101E8000CC00CB0101084B07C7004C08C80000304C
:101E900003180130C8074D08C9000030031801308D
:101EA000C9074E08CA00003003180130CA07C2082B
:101EB0000319612FD2013930D1008A11B1218A155D
:101EC000C201CC013930CB004A08D0004908CF000C
:101ED0004808CE004708CD004608D4004508D30086
:0E1EE0004408D2004308D100492AEF2E6300C7
:04400E00103F03005C
:00000001FF
;PIC16F88
;CRC=34FB  CREATED="23-jun.-19 20:13"
